{
  "contractName": "Simplebank",
  "abi": [
    {
      "inputs": [
        {
          "internalType": "uint256",
          "name": "",
          "type": "uint256"
        }
      ],
      "name": "funders",
      "outputs": [
        {
          "internalType": "address",
          "name": "",
          "type": "address"
        }
      ],
      "stateMutability": "view",
      "type": "function",
      "constant": true
    },
    {
      "inputs": [],
      "name": "addFunds",
      "outputs": [],
      "stateMutability": "payable",
      "type": "function",
      "payable": true
    }
  ],
  "bytecode": "0x608060405234801561001057600080fd5b50610213806100206000396000f3fe6080604052600436106100295760003560e01c8063a26759cb1461002e578063dc0d3dff14610038575b600080fd5b610036610075565b005b34801561004457600080fd5b5061005f600480360381019061005a9190610154565b6100da565b60405161006c91906101c2565b60405180910390f35b6000339080600181540180825580915050600190039060005260206000200160009091909190916101000a81548173ffffffffffffffffffffffffffffffffffffffff021916908373ffffffffffffffffffffffffffffffffffffffff160217905550565b600081815481106100ea57600080fd5b906000526020600020016000915054906101000a900473ffffffffffffffffffffffffffffffffffffffff1681565b600080fd5b6000819050919050565b6101318161011e565b811461013c57600080fd5b50565b60008135905061014e81610128565b92915050565b60006020828403121561016a57610169610119565b5b60006101788482850161013f565b91505092915050565b600073ffffffffffffffffffffffffffffffffffffffff82169050919050565b60006101ac82610181565b9050919050565b6101bc816101a1565b82525050565b60006020820190506101d760008301846101b3565b9291505056fea264697066735822122086d68213f0e22bb7ab0c8d89c6eee614d2f0b1bee10997474b4c1cd5bad55d9e64736f6c63430008110033",
  "immutableReferences": {},
  "source": "// SPDX-License-Identifier: MIT\r\npragma solidity >=0.4.22 <0.9.0;\r\n \r\ncontract Simplebank {\r\n   \r\n   function addFunds() external payable {\r\n        funders.push(msg.sender);\r\n   }\r\n   address[] public funders;\r\n}\r\n\r\n\r\n\r\n// const instance = await Simplebank.deployed()\r\n// instance.addFunds({value: \"500000000000000000\", from: accounts[0]})\r\n// instance.addFunds({value: \"500000000000000000\", from: accounts[1]})\r\n// const funds = instance.funds()",
  "sourcePath": "C:\\Users\\roile\\OneDrive - Azrieli - Jerusalem College of Engineering\\מסמכים\\Git Codes\\First smart contract\\contracts\\Simplebank.sol",
  "compiler": {
    "name": "solc",
    "version": "0.8.17+commit.8df45f5f.Emscripten.clang"
  },
  "schemaVersion": "3.4.11",
  "updatedAt": "2022-12-28T09:27:52.647Z",
  "networkType": "ethereum",
  "devdoc": {
    "kind": "dev",
    "methods": {},
    "version": 1
  },
  "userdoc": {
    "kind": "user",
    "methods": {},
    "version": 1
  }
}